:100000000C943A000C9457000C9457000C94570031
:100010000C9457000C9457000C9457000C94570004
:100020000C9457000C9457000C9457000C945700F4
:100030000C9457000C9457000C9457000C945700E4
:100040000C9457000C9457000C9457000C945700D4
:100050000C9457000C9457000C9457000C945700C4
:100060000C9457000C9457000C9457000C945700B4
:100070000C94570011241FBECFEFD4E0DEBFCDBFDC
:1000800013E0A0E0B1E0EAEDF6E102C005900D92C8
:10009000A237B107D9F723E0A2E7B3E001C01D9270
:1000A000A939B207E1F70E945F090C946B0B0C941D
:1000B0000000CF93C82F61E070E084E090E00E94E0
:1000C000120AFC018C2F64E60E949D0920E3280F90
:1000D0002083892F6AE00E949D09805D8183905D65
:1000E0009283CF01CF910895EF92FF920F931F93C8
:1000F000CF93DF937C018A01FB0180810E9459002C
:10010000EC0180E090E00E94A407CE0102960E94DC
:100110008F07CE010E94C10A81E0F7018083F801B8
:1001200011821082DF91CF911F910F91FF90EF907C
:100130000895CF93DF9300D01F92CDB7DEB781E053
:1001400090E00E94A40785E693E00E948F071A8240
:1001500019821B820E9400050E94F20884E00E941E
:10016000C00881116BC00E94C008882359F080919B
:100170000101282F30E02330310514F48F5F11C0C6
:1001800084E00FC082E00E94C008882391F0809133
:100190000101282F30E02330310514F0815001C0D7
:1001A00081E080930101AE014F5F5F4F61E071E03C
:1001B00026C081E00E94C008882359F08091000188
:1001C000282F30E02430310514F48F5F11C085E012
:1001D0000FC083E00E94C0088823A9F0809100012D
:1001E000282F30E02330310514F0815001C081E028
:1001F00080930001AE014F5F5F4F60E071E0CE0180
:1002000003960E94740089819A818C3B924071F41C
:100210008B81882359F081E090E00E94A40785E655
:1002200093E00E948F071B821A8219820E94B307F3
:1002300089819A8101969A8389838CCF0F900F9040
:100240000F90DF91CF910895CF93DF9381E090E0FD
:100250000E94A4070E94D1020E945900EC01BC0137
:100260008BE693E00E94510B0E948F07CE010E9403
:10027000C10A0E9400050E94F20884E00E94C008A2
:10028000811103C00E94B307F4CFDF91CF9108958D
:100290005F926F927F928F929F92AF92BF92CF9216
:1002A000DF92EF92FF920F931F93CF93DF93CDB71F
:1002B000DEB7ADB6BEB60E94D4020E9400038091A4
:1002C000000190E0880F991F2DB73EB7281B390B0E
:1002D0000FB6F8943EBF0FBE2DBF8DB79EB70196E7
:1002E0007C0110E080910001181760F40E94510217
:1002F000E12FF0E0EE0FFF1FEE0DFF1D91838083D5
:100300001F5FF0CF6624639455245394772473942D
:10031000C12CD12C00E010E04CEB842E42E0942E56
:100320000E9400050E94F20881E00E94C008882314
:1003300019F081E090E017C083E00E94C008882394
:1003400019F083E090E00FC080E00E94C00888238D
:1003500019F080E090E007C082E00E94C008882386
:1003600021F082E090E00E94AC0320910101E22F95
:10037000F0E0EE0FFF1FE050FF4F60817181C4017C
:100380000E94A9090617170789F5822F0E945203B8
:10039000882391F010E080910001181708F05CC0EC
:1003A000E12FF0E0EE0FFF1FEE0DFF1D8081918128
:1003B0000E94AC021F5FEFCF60910001C7010E9455
:1003C0003603082F8F3F81F00E94E503000F110BC9
:1003D0000E0D1F1DF801808191810E94AC020E94C8
:1003E0005102F8019183808300E010E0F3E2CF1620
:1003F000D10421F481E06826C12CD12C0E946C0428
:10040000662029F060910001C7010E94AE020E949F
:100410000003672D852D0E947404582E872D90E0CF
:10042000059714F4739402C077247394E09101014A
:10043000F0E0EE0FFF1FE05CFE4F60817181C801AC
:100440000E94A909892B11F40E9448022FEFC21AB9
:10045000D20A0F5F1F4F64CF0E946C040FB6F8944E
:10046000BEBE0FBEADBEDF91CF911F910F91FF9029
:10047000EF90DF90CF90BF90AF909F908F907F9044
:100480006F905F900895549A5C98569A5E9A08957A
:100490009BB180E189278BB99BB180E489278BB917
:1004A0000895CF92DF92EF92FF920F931F93CF9315
:1004B000DF9362E070E081E090E00E94120A8C011C
:1004C000809184009091850065E070E00E94A90908
:1004D000282FD82F809184009091850067E070E0EC
:1004E0000E94A909C82F822F0E942004482F87E06C
:1004F000E82EF12C95E0C92ED12C8C2F90E0242FE2
:1005000030E00C2E02C0359527950A94E2F720FFC3
:1005100013C04F3759F48D2F90E00196B6010E9419
:10052000BD09D82F0E942004482FE7CF0196B701BC
:100530000E94BD09C82FE1CF81E08D0FF8018083B3
:10054000CF5FC183C801DF91CF911F910F91FF90C1
:10055000EF90DF90CF9008950C94C10A0F931F93F2
:10056000CF93DF93D62F8C01C0E0CD1761F0D80177
:10057000ED91FD918D01618170E0808190E00E949C
:10058000CC04CF5FF2CFDF91CF911F910F910895EF
:10059000809172038F5F80937203089510927203AB
:1005A000089580917203089566E070E081E090E024
:1005B0000E94120AFC0183E0808384E0818313821D
:1005C000128215821482A3E7B3E01196FC93EE9396
:1005D0001396FC93EE9312970895CF93DF93809137
:1005E000750390917603009741F0FC01D481C58199
:1005F0000E94C10A8D2F9C2FF6CFDF91CF910895D5
:10060000CF93DF93C0917303D0917403209751F07F
:10061000698170E0888190E00E94CC040A80DB81CF
:10062000C02DF4CFDF91CF910895E0917303F09145
:1006300074030280F381E02D3097B1F0409175038F
:1006400050917603228133812115310569F0E41739
:10065000F50751F09081981303C09181961711F01E
:10066000F901F0CF81E0089580E00895CF93DF9302
:10067000E0917303F0917403DC0190E0961771F040
:10068000CD91DD9128818081281306C02981818147
:10069000281302C0892F03C09F5FF0CF8FEFDF9137
:1006A000CF910895FF920F931F93CF93DF93C09143
:1006B0007303D09174030881F980053029F4909177
:1006C0007803913051F407C0013039F490917803E8
:1006D0009F3F19F495E0988310C090910A0121E0A2
:1006E000F21204C0913069F497E006C027E0F212DC
:1006F00008C09F3F31F491E0998311E0843048F4C1
:1007000007C080917803800F88838F2D891B898390
:1007100010E0698188810E941503811111E0EA814E
:10072000FB81309751F0808191810083F1820280BA
:10073000F381E02DF92E082FF4CF109277031123C7
:1007400021F00E94ED0281E001C080E0DF91CF91B5
:100750001F910F91FF90089520917703211134C0CC
:1007600081309105D9F030F08230910569F003971E
:10077000F9F0089580910A018F3F31F110927803CA
:1007800081E080930A011EC080910A018130E1F06E
:10079000109278038FEF80930A0113C08091780341
:1007A0008F3F91F081E08093780310920A010AC094
:1007B00080917803813041F08FEF8093780310921D
:1007C0000A0181E08093770308950F931F93CF93DD
:1007D000DF9303E713E0D8011296CD91DC911397D4
:1007E00066E070E081E090E00E94120AFC018881DE
:1007F00080838981818313821282D583C483FB83A2
:10080000EA83D8011396FC93EE931297DF91CF9170
:100810001F910F910C94C8029C01FC01FF2795A128
:10082000892F832B85A308959C01FC01FF2784A1B8
:10083000832B84A395A1892F832B85A381E0089521
:10084000E82FF0E0E758FC4F80810895CF93DF93C5
:1008500083E090E40E94140480E090E80E94140475
:1008600083E090E10E94140483E090E80E94140465
:1008700083E090E20E941404C5E3D3E0899199914A
:100880000E94140483E0C334D807C1F7DF91CF91ED
:100890000895CF93DF9383E090E40E940C0480E0FE
:1008A00090E80E940C0483E090E10E940C0483E035
:1008B00090E80E940C0483E090E20E940C04C5E3DF
:1008C000D3E0899199910E940C0483E0C334D80746
:1008D000C1F7DF91CF910895E9E7F3E0108211822B
:1008E0001282138214820895AF92BF92DF92EF9228
:1008F000FF920F931F93CF93DF93D62EC62FD0E096
:100900002197FE01E758FC4FA080E82FF0E0EE0FA2
:10091000FF1FE75DFC4F808191810E940C0425E35D
:10092000E22E23E0F22E00E010E0B12CC501002EF3
:1009300002C0959587950A94E2F7F70180FF09C0F8
:1009400080819181FC01FF2785A19095892385A352
:1009500004C0808191810E940C040F5F1F4FF2E060
:10096000EF0EF11C0730110509F7CC0FDD1FC55D37
:10097000DC4F88819981FC01FF2785A1909589230F
:1009800085A38D2DDF91CF911F910F91FF90EF9057
:10099000DF90BF90AF900895FC01E858FC4F615084
:1009A000710921E030E001C0220F6A95EAF78081E9
:1009B000282B20830895E1E6F0E080E88083108210
:1009C000A89584B7877F84BFE0E6F0E080818861E6
:1009D000808310820895CF93DF93EC010E94150568
:1009E0009E0140E050E062E17AE780E090E00E9402
:1009F000D1093093810320938003DF91CF91089533
:100A000080917E0390917F030E94240520917E03B4
:100A100030917F038091800390918103820F931F17
:100A200090937F0380937E0308951092800084E06A
:100A30008093810010928500109284000895809127
:100A40008400909185000895AC018091840090917C
:100A500085009C01241B350B283E3340B0F70895D8
:100A60002091840030918500820F931F0C942405FF
:100A70009C01FC01FF2784A1832B84A395A1892FCE
:100A8000832B85A381E00895CF93DF93CDE4D3E05A
:100A9000899199910E94380583E0CB35D807C1F739
:100AA00083E090E40E94380580E090E80E943805D9
:100AB00083E090E10E94380583E090E80E943805C9
:100AC00083E090E2DF91CF910C943805E0918203AE
:100AD000F0E0EE0FFF1FED5BFC4F20813181F9014B
:100AE000FF2795A1932B95A3EDE4F3E097E02081F8
:100AF0003181D901BB2795962C91959780FF03C032
:100B00003095232301C0232B95962C9386959150E5
:100B100032969111ECCFE62FF0E0EE0FFF1FED5B68
:100B2000FC4F80819181FC01FF2785A1909589234D
:100B300085A3609382030895853098F4673088F424
:100B400021E030E001C0220F6A95EAF7E82FF0E0DB
:100B5000EC57FC4F922F9095808189234111822B75
:100B600080830895853080F4673070F421E030E0B0
:100B700001C0220F6A95EAF7E82FF0E0EC57FC4F2E
:100B80008081282381E009F480E008956091830347
:100B9000E62FF0E0EC57FC4F80810E9466058091C3
:100BA00083038F5F853018F4809383030895109238
:100BB00083030895E4E8F3E0108211821282138225
:100BC000148208950E9444050C94DA05692F0C9450
:100BD000B20541E0611101C040E0692F0C949C0511
:100BE0000C94E9055F926F927F928F929F92AF92E1
:100BF000BF92CF92DF92EF92FF920F931F93CF930A
:100C0000DF93562E872E942E5C01E62EF72EC62FEC
:100C1000660FDD0BC81BD10987FDD395072F770F12
:100C2000110B091B110997FD1395D7FF03C07724FA
:100C30007A9402C07724739417FF03C066246A94E1
:100C400002C066246394D7FF03C0D195C195D10932
:100C500017FF03C0119501951109C017D107A4F022
:100C60006E01D594C794F92EA51411F1692D8A2D22
:100C70009F2D0E94E905C01AD10AD7FE03C0CC0EF1
:100C8000DD1EF60CA70CF0CF6801D594C794E82EB2
:100C9000B81471F0692D8E2D9B2D0E94E905CC1A98
:100CA000DD0AD7FE03C0C00ED11EE70CB60CF0CF94
:100CB000692DC701DF91CF911F910F91FF90EF90A8
:100CC000DF90CF90BF90AF909F908F907F906F906C
:100CD0005F900C94E905FF920F931F93CF93DF93DE
:100CE000D82FF92E162FC72F042F792F0E94F20527
:100CF000402F6D2F7C2F8D2F9F2D0E94F205402FAE
:100D0000612F7C2F812F9F2D0E94F205402F612F94
:100D10007C2F8D2F9C2F0E94F205DF91CF911F9188
:100D20000F91FF9008950E94DA05EBE0F1E0118A3F
:100D300014860895DF92EF92FF920F931F93CF9343
:100D4000DF93D82E7B01162F0F2D80910D019091EE
:100D50000E01D0E0019799F50F2D0D1BE0911301C5
:100D6000F09114018181C0E0D817B8F4809113018B
:100D700090911401FC012281C21768F42C2F4D2F91
:100D80006D2D0E945408682F8E2D8C0F902F0E947D
:100D9000E905CF5FEBCFDF5FDFCFE0911301F0918B
:100DA00014018281C81740F460E08E2D8C0F902FC3
:100DB0000E94E905CF5FF1CF015030C0DF5F1E2DEB
:100DC0001D0FE0911301F09114018181C0E0D8174B
:100DD000A8F48091130190911401FC012281C217A3
:100DE00068F72C2F4D2F6D2D0E945408682F812FEE
:100DF0009F2D9C0F0E94E905CF5FEBCFE09113017F
:100E0000F09114018281C81740F460E0812F9F2D7A
:100E10009C0F0E94E905CF5FF1CF1F5F812F902FBC
:100E2000DF91CF911F910F91FF90EF90DF90089588
:100E30000F931F93CF938C01C0E0F80181918F0134
:100E4000882341F00E949A06BC01CF5F853014F4DC
:100E500077FFF3CF8C2FCF911F910F9108950F93B0
:100E60001F93CF93DF9310921701409318011092B4
:100E70001B0100911301109114010115110509F4D2
:100E800049C09B01EC01F8018181609111017091D1
:100E9000120190E00E948C09BC0180911501909193
:100EA00016010E94A909CB016AE070E00E948C093A
:100EB00090931A01809319013093100120930F0130
:100EC00040E250E0BE018CE191E00E945C0B809119
:100ED0000B0190910C010197E9F4FE0101900020B3
:100EE000E9F73197BF016C1B7D0BF80181818F5FA2
:100EF0000E948309815020910D0130910E01213013
:100F0000310511F095E001C097E0981718F48EEFC5
:100F100080931B01DF91CF911F910F910895209134
:100F20000D0130910E012130310511F070E001C04A
:100F300076E04FEF60E00E942F07089590E09093D5
:100F4000120180931101089590930C0180930B017D
:100F5000089590930E0180930D01089590931401CC
:100F60008093130108958091890390918A030196DB
:100F700090938A03809389032091190130911A017B
:100F80008217930708F469C010928A0310928903AC
:100F9000E0911701F0E0E55FFE4F818981110AC001
:100FA00080911801823008F458C081508093180154
:100FB000109217018091170190E0FC01E55FFE4F50
:100FC0002189222309F449C040910B0150910C0161
:100FD00020911B014115510521F04130510599F037
:100FE00024C0211122C060910F0170911001845E14
:100FF0009E4F0E94180790E0019790911701890F6A
:101000008093170112C060910F01709110014091FF
:101010000D0150910E014130510511F4720F01C0C4
:10102000621B845E9E4F0E94180780911B018F5F98
:1010300080931B01082E000C990BE0911301F09195
:101040001401218130E0281739073CF410921B016C
:10105000809117018F5F809317010C94C605CF9381
:10106000DF93CBE0D1E09B878A870E94E20584E191
:1010700090E09F838E83DF91CF910C94930600972D
:1010800089F0FC012381621B67FD09C0062E000C5C
:10109000770B248130E081E0621773070CF080E069
:1010A0008170089580E00895CF93DF93FC01892B30
:1010B00079F18181481760F59281291748F593816C
:1010C000A62FA91BA7FD24C00A2E000CBB0BC481B0
:1010D000D0E0AC17BD07E4F4622F0E948309480FEB
:1010E000858190E0BD010E948C090696242F2695EB
:1010F00026952695E80FF91FE20FF11D808190E0FB
:10110000477002C0959587954A95E2F7817001C0B6
:1011100080E0DF91CF9108956230710519F170F48C
:101120006130710559F5FC01FF2724A1392F309555
:10113000922F932394A385A183231DC0633071054F
:1011400041F064307105D1F4FC01FF2784A1892BA3
:101150000FC0FC01FF2784A1892B84A385A1909552
:10116000892309C0FC01FF2784A1292F2095822310
:1011700084A385A1892B85A381E0089580E008954B
:10118000E82FF0E0EE0FFF1FE557FC4F808188232A
:1011900021F0918181E0892702C080E090E0817098
:1011A0000895E82FF0E0EE0FFF1FE557FC4F808118
:1011B000811102C0818102C080E090E081700895B9
:1011C000E82FF0E0EE0FFF1FE557FC4F80810895F8
:1011D000E82FF0E0EE0FFF1FE557FC4F908181E014
:1011E000892708957F928F929F92AF92BF92CF925C
:1011F000DF92EF92FF920F931F93CF93DF93CBE891
:10120000D3E05BE5C52E53E0D52E66E0762E8881CF
:101210008983F601019111916F015801BB24F501F9
:1012200024A1E12EFF2485A190E08E219F2130E0B2
:101230002E213F21232B31F0892B51F433E0832ED3
:10124000912C0DC0892B41F488248394912C07C0E4
:1012500094E0892E912C03C082E0882E912C64E0CA
:1012600070E0C8010E948C0862E070E0C8010E9432
:101270008C08872D8A95F1F7F50183A190E0E8228B
:10128000F92281E0EF2809F080E08883B401C801E9
:101290000E948C082296F3E0C539DF0709F0B7CF2A
:1012A000DF91CF911F910F91FF90EF90DF90CF9042
:1012B000BF90AF909F908F907F90089508950E9467
:1012C000DB048EE591E00E94EB040E9443028EE570
:1012D00091E00E942F088AE491E00E94AE0784E129
:1012E0000E949E0781E090E00E94A4070E942604CD
:1012F0000E9499000E9448010E9424010E94CE028F
:101300000E94ED02F5CF002480FD060E660F11F05D
:101310008695D1F7802D08950024552704C0080E26
:10132000591F880F991F009729F076956795B8F394
:101330007105B9F7802D952F0895991B79E004C0A8
:10134000991F961708F0961B881F7A95C9F7809504
:101350000895AA1BBB1B51E107C0AA1FBB1FA617FC
:10136000B70710F0A61BB70B881F991F5A95A9F74E
:1013700080959095BC01CD01089597FB072E16F43A
:10138000009407D077FD09D00E94A90907FC05D079
:101390003EF4909581959F4F0895709561957F4F8C
:1013A0000895052E97FB1EF400940E94E80957FD4E
:1013B00007D00E94F00907FC03D04EF40C94E80912
:1013C00050954095309521953F4F4F4F5F4F089571
:1013D00090958095709561957F4F8F4F9F4F0895A1
:1013E000A1E21A2EAA1BBB1BFD010DC0AA1FBB1F29
:1013F000EE1FFF1FA217B307E407F50720F0A21B9B
:10140000B30BE40BF50B661F771F881F991F1A9407
:1014100069F760957095809590959B01AC01BD0131
:10142000CF0108950F931F93CF93DF930E948C09F0
:101430008C010E94290AEC01009729F0A80160E0C4
:1014400070E00E944A0BCE01DF91CF911F910F9166
:1014500008950F931F93CF93DF938230910510F47B
:1014600082E090E0E0919703F091980320E030E073
:10147000A0E0B0E0309719F14081518102811381E1
:1014800048175907C8F08417950769F4109731F089
:1014900012960C93129713961C9327C000939703F0
:1014A0001093980322C02115310519F042175307F4
:1014B00018F49A01BD01EF01DF01F801DBCF21151E
:1014C0003105F9F0281B390B2430310580F48A816D
:1014D0009B816115710521F0FB019383828304C018
:1014E0009093980380939703FE01329644C0FE01C7
:1014F000E20FF31F8193919322503109398328839E
:101500003AC02091950330919603232B41F420910A
:101510003E0130913F013093960320939503209133
:101520003C0130913D012115310541F42DB73EB705
:101530004091400150914101241B350BE0919503EE
:10154000F0919603E217F307A0F42E1B3F0B281728
:10155000390778F0AC014E5F5F4F2417350748F02C
:101560004E0F5F1F50939603409395038193919381
:1015700002C0E0E0F0E0CF01DF91CF911F910F9129
:101580000895CF93DF93009709F481C0FC0132974F
:1015900013821282A0919703B0919803109781F45F
:1015A00020813181820F931F209195033091960302
:1015B0002817390751F5F0939603E093950367C018
:1015C000ED0120E030E0CE17DF0740F44A815B8177
:1015D0009E0141155105F1F0EA01F5CFD383C28395
:1015E00040815181840F951FC817D90759F488810C
:1015F0009981840F951F0296918380838A819B81B4
:10160000938382832115310529F4F0939803E093A5
:1016100097033DC0E901FB83EA8349915991C40FC7
:10162000D51FEC17FD0761F480819181840F951F10
:101630000296E90199838883828193819B838A83BF
:10164000E0E0F0E012968D919C911397009719F0CD
:10165000FD01DC01F7CF8D919C9111979D012E5FCB
:101660003F4F820F931F20919503309196032817C7
:10167000390769F4309729F4109298031092970370
:1016800002C013821282B0939603A0939503DF9158
:10169000CF910895DC0101C06D9341505040E0F7B7
:1016A0000895FB01DC010D900020E9F711970190EE
:1016B0000D920020E1F70895FB01DC0141505040FC
:1016C00048F001900D920020C9F701C01D924150D1
:0A16D0005040E0F70895F894FFCFB2
:1016DA0001010200030004000400010000000000F0
:1016EA0000140000000000000000000000000000DC
:1016FA0000000000000000000000000000000000E0
:10170A000000000000000000000000000000990333
:10171A002000E803C80032001900010507205F0510
:10172A000000000000C6186380014A290000004A30
:10173A007DF59502C417471F01632222320626153A
:10174A005193058608000000880821080282208437
:10175A008800805457090080904F08000000608874
:10176A000000800F00000000008C0100222202000D
:10177A002EE63AA303C4104288032E4244C4072E1D
:10178A004207A30388A9F411023F8407A3032E8604
:10179A0017A3033F424408012E4617A3032E460F00
:1017AA00A303C018600C00C018608800888820084D
:1017BA0002007CF0010082208888002E4244000149
:1017CA002E425BAB0344C51F63042FC617E3032EE7
:1017DA008610A2032FC618E3033F8417C2073F846B
:1017EA001742002E861EA30731C61F63048E1042BD
:1017FA008803104218A3033195515204218410C260
:10180A000771D71A630471D61C63042EC618A30382
:10181A002FC61742002EC65893052FC61763042EEB
:10182A000607A3039F1042080131C618A30331C655
:10183A0018150131C65AAB02312AA26204312A4272
:10184A0008011F2222C207278410C2012008822011
:10185A00000E218490034445000000000000C007E8
:10186A0082200000000038E8A30721B419E303002E
:10187A00B810A20310DA1CA30700B8F883034C8A35
:10188A00238400C0C7E8A10321B4196304041842E1
:10189A008803083084920121A4324A0286104288C1
:1018AA000300AC5A630400B419630400B818A30314
:1018BA0000BCF8420000D8EC210400B41942000030
:1018CA00B8E0E003421C21240300C418B30500C495
:1018DA0018150100C45AAB02004445540400C4E878
:1018EA00A103007C44C407881041080284104208FE
:1018FA0001821044880000888A00000340008003A7
:10190A00100380032000400020001000080004009B
:10191A0002000103400080031003800320004000FE
:10192A0020001000080004000200010380034003A5
:10193A002000800310534E414B450053434F5245FC
:02194A003A0061
:00000001FF
